{
    "_format": "hh-sol-artifact-1",
    "contractName": "FemPure",
    "sourceName": "contracts/FemPure.sol",
    "abi": [
        {
            "inputs": [
                {
                    "internalType": "uint256",
                    "name": "_logisticsCostInWei",
                    "type": "uint256"
                },
                {
                    "internalType": "string",
                    "name": "_productMetadataBaseURI",
                    "type": "string"
                }
            ],
            "stateMutability": "nonpayable",
            "type": "constructor"
        },
        {
            "anonymous": false,
            "inputs": [
                {
                    "indexed": false,
                    "internalType": "string",
                    "name": "_pincode",
                    "type": "string"
                }
            ],
            "name": "NewOrder",
            "type": "event"
        },
        {
            "anonymous": false,
            "inputs": [],
            "name": "NewPartnerRegistered",
            "type": "event"
        },
        {
            "anonymous": false,
            "inputs": [
                {
                    "indexed": true,
                    "internalType": "address",
                    "name": "_user",
                    "type": "address"
                },
                {
                    "indexed": true,
                    "internalType": "address",
                    "name": "_partner",
                    "type": "address"
                },
                {
                    "indexed": true,
                    "internalType": "uint256",
                    "name": "_orderId",
                    "type": "uint256"
                }
            ],
            "name": "OrderAssignedToPartner",
            "type": "event"
        },
        {
            "anonymous": false,
            "inputs": [
                {
                    "indexed": true,
                    "internalType": "address",
                    "name": "_partner",
                    "type": "address"
                },
                {
                    "indexed": true,
                    "internalType": "uint256",
                    "name": "_orderId",
                    "type": "uint256"
                }
            ],
            "name": "OrderCancelled",
            "type": "event"
        },
        {
            "anonymous": false,
            "inputs": [
                {
                    "indexed": true,
                    "internalType": "address",
                    "name": "_user",
                    "type": "address"
                },
                {
                    "indexed": true,
                    "internalType": "uint256",
                    "name": "_orderId",
                    "type": "uint256"
                }
            ],
            "name": "OrderDeliveredByPartner",
            "type": "event"
        },
        {
            "anonymous": false,
            "inputs": [
                {
                    "indexed": false,
                    "internalType": "string",
                    "name": "_pincode",
                    "type": "string"
                }
            ],
            "name": "ProductsRemovedFromLocation",
            "type": "event"
        },
        {
            "anonymous": false,
            "inputs": [
                {
                    "indexed": false,
                    "internalType": "string",
                    "name": "_pincode",
                    "type": "string"
                }
            ],
            "name": "newProductsAddedToLocation",
            "type": "event"
        },
        {
            "inputs": [
                {
                    "internalType": "string",
                    "name": "productName",
                    "type": "string"
                },
                {
                    "internalType": "string",
                    "name": "productDescription",
                    "type": "string"
                },
                {
                    "internalType": "uint256",
                    "name": "productPriceInWei",
                    "type": "uint256"
                }
            ],
            "name": "addNewProduct",
            "outputs": [],
            "stateMutability": "nonpayable",
            "type": "function"
        },
        {
            "inputs": [
                {
                    "internalType": "string",
                    "name": "_pincode",
                    "type": "string"
                },
                {
                    "internalType": "uint256[]",
                    "name": "productIDs",
                    "type": "uint256[]"
                }
            ],
            "name": "addProductstoLocation",
            "outputs": [],
            "stateMutability": "nonpayable",
            "type": "function"
        },
        {
            "inputs": [
                {
                    "internalType": "address",
                    "name": "partner",
                    "type": "address"
                }
            ],
            "name": "approvePartner",
            "outputs": [],
            "stateMutability": "nonpayable",
            "type": "function"
        },
        {
            "inputs": [
                {
                    "internalType": "uint256",
                    "name": "",
                    "type": "uint256"
                }
            ],
            "name": "availableLocations",
            "outputs": [
                {
                    "internalType": "string",
                    "name": "",
                    "type": "string"
                }
            ],
            "stateMutability": "view",
            "type": "function"
        },
        {
            "inputs": [
                {
                    "internalType": "uint256[]",
                    "name": "_productIDs",
                    "type": "uint256[]"
                },
                {
                    "internalType": "uint256[]",
                    "name": "_supplyMap",
                    "type": "uint256[]"
                }
            ],
            "name": "calculateOrderCost",
            "outputs": [
                {
                    "internalType": "uint256",
                    "name": "",
                    "type": "uint256"
                }
            ],
            "stateMutability": "view",
            "type": "function"
        },
        {
            "inputs": [
                {
                    "internalType": "uint256",
                    "name": "_orderId",
                    "type": "uint256"
                }
            ],
            "name": "cancelOrderAndRefund",
            "outputs": [],
            "stateMutability": "nonpayable",
            "type": "function"
        },
        {
            "inputs": [],
            "name": "checkApprovalStatus",
            "outputs": [
                {
                    "internalType": "bool",
                    "name": "",
                    "type": "bool"
                }
            ],
            "stateMutability": "view",
            "type": "function"
        },
        {
            "inputs": [],
            "name": "contractPaused",
            "outputs": [
                {
                    "internalType": "bool",
                    "name": "",
                    "type": "bool"
                }
            ],
            "stateMutability": "view",
            "type": "function"
        },
        {
            "inputs": [
                {
                    "internalType": "string",
                    "name": "_pincode",
                    "type": "string"
                }
            ],
            "name": "findAvailablePartner",
            "outputs": [
                {
                    "internalType": "address",
                    "name": "",
                    "type": "address"
                }
            ],
            "stateMutability": "view",
            "type": "function"
        },
        {
            "inputs": [],
            "name": "getAvailableLocations",
            "outputs": [
                {
                    "internalType": "string[]",
                    "name": "",
                    "type": "string[]"
                }
            ],
            "stateMutability": "view",
            "type": "function"
        },
        {
            "inputs": [
                {
                    "internalType": "string",
                    "name": "_pincode",
                    "type": "string"
                }
            ],
            "name": "getAvailableProductsInLocation",
            "outputs": [
                {
                    "internalType": "uint256[]",
                    "name": "",
                    "type": "uint256[]"
                }
            ],
            "stateMutability": "view",
            "type": "function"
        },
        {
            "inputs": [],
            "name": "getCancelledOrdersPartner",
            "outputs": [
                {
                    "components": [
                        {
                            "internalType": "uint256",
                            "name": "orderInitiationTime",
                            "type": "uint256"
                        },
                        {
                            "internalType": "uint256[]",
                            "name": "productIDs",
                            "type": "uint256[]"
                        },
                        {
                            "internalType": "uint256[]",
                            "name": "supplyMap",
                            "type": "uint256[]"
                        },
                        {
                            "internalType": "bool",
                            "name": "partnerAssigned",
                            "type": "bool"
                        },
                        {
                            "internalType": "bool",
                            "name": "orderDeliveredByPartner",
                            "type": "bool"
                        },
                        {
                            "internalType": "bool",
                            "name": "orderReceivedByUser",
                            "type": "bool"
                        },
                        {
                            "internalType": "bool",
                            "name": "orderCancelled",
                            "type": "bool"
                        },
                        {
                            "internalType": "uint256",
                            "name": "otp",
                            "type": "uint256"
                        }
                    ],
                    "internalType": "struct FemPure.OrderData[]",
                    "name": "",
                    "type": "tuple[]"
                },
                {
                    "internalType": "uint256[]",
                    "name": "",
                    "type": "uint256[]"
                }
            ],
            "stateMutability": "view",
            "type": "function"
        },
        {
            "inputs": [],
            "name": "getCancelledOrdersUser",
            "outputs": [
                {
                    "components": [
                        {
                            "internalType": "uint256",
                            "name": "orderInitiationTime",
                            "type": "uint256"
                        },
                        {
                            "internalType": "uint256[]",
                            "name": "productIDs",
                            "type": "uint256[]"
                        },
                        {
                            "internalType": "uint256[]",
                            "name": "supplyMap",
                            "type": "uint256[]"
                        },
                        {
                            "internalType": "bool",
                            "name": "partnerAssigned",
                            "type": "bool"
                        },
                        {
                            "internalType": "bool",
                            "name": "orderDeliveredByPartner",
                            "type": "bool"
                        },
                        {
                            "internalType": "bool",
                            "name": "orderReceivedByUser",
                            "type": "bool"
                        },
                        {
                            "internalType": "bool",
                            "name": "orderCancelled",
                            "type": "bool"
                        },
                        {
                            "internalType": "uint256",
                            "name": "otp",
                            "type": "uint256"
                        }
                    ],
                    "internalType": "struct FemPure.OrderData[]",
                    "name": "",
                    "type": "tuple[]"
                },
                {
                    "internalType": "uint256[]",
                    "name": "",
                    "type": "uint256[]"
                }
            ],
            "stateMutability": "view",
            "type": "function"
        },
        {
            "inputs": [],
            "name": "getCompletedOrdersPartner",
            "outputs": [
                {
                    "components": [
                        {
                            "internalType": "uint256",
                            "name": "orderInitiationTime",
                            "type": "uint256"
                        },
                        {
                            "internalType": "uint256[]",
                            "name": "productIDs",
                            "type": "uint256[]"
                        },
                        {
                            "internalType": "uint256[]",
                            "name": "supplyMap",
                            "type": "uint256[]"
                        },
                        {
                            "internalType": "bool",
                            "name": "partnerAssigned",
                            "type": "bool"
                        },
                        {
                            "internalType": "bool",
                            "name": "orderDeliveredByPartner",
                            "type": "bool"
                        },
                        {
                            "internalType": "bool",
                            "name": "orderReceivedByUser",
                            "type": "bool"
                        },
                        {
                            "internalType": "bool",
                            "name": "orderCancelled",
                            "type": "bool"
                        },
                        {
                            "internalType": "uint256",
                            "name": "otp",
                            "type": "uint256"
                        }
                    ],
                    "internalType": "struct FemPure.OrderData[]",
                    "name": "",
                    "type": "tuple[]"
                },
                {
                    "internalType": "uint256[]",
                    "name": "",
                    "type": "uint256[]"
                }
            ],
            "stateMutability": "view",
            "type": "function"
        },
        {
            "inputs": [],
            "name": "getCompletedOrdersUser",
            "outputs": [
                {
                    "components": [
                        {
                            "internalType": "uint256",
                            "name": "orderInitiationTime",
                            "type": "uint256"
                        },
                        {
                            "internalType": "uint256[]",
                            "name": "productIDs",
                            "type": "uint256[]"
                        },
                        {
                            "internalType": "uint256[]",
                            "name": "supplyMap",
                            "type": "uint256[]"
                        },
                        {
                            "internalType": "bool",
                            "name": "partnerAssigned",
                            "type": "bool"
                        },
                        {
                            "internalType": "bool",
                            "name": "orderDeliveredByPartner",
                            "type": "bool"
                        },
                        {
                            "internalType": "bool",
                            "name": "orderReceivedByUser",
                            "type": "bool"
                        },
                        {
                            "internalType": "bool",
                            "name": "orderCancelled",
                            "type": "bool"
                        },
                        {
                            "internalType": "uint256",
                            "name": "otp",
                            "type": "uint256"
                        }
                    ],
                    "internalType": "struct FemPure.OrderData[]",
                    "name": "",
                    "type": "tuple[]"
                },
                {
                    "internalType": "uint256[]",
                    "name": "",
                    "type": "uint256[]"
                }
            ],
            "stateMutability": "view",
            "type": "function"
        },
        {
            "inputs": [],
            "name": "getDeliveryAddressPartner",
            "outputs": [
                {
                    "internalType": "string",
                    "name": "",
                    "type": "string"
                },
                {
                    "internalType": "string",
                    "name": "",
                    "type": "string"
                }
            ],
            "stateMutability": "view",
            "type": "function"
        },
        {
            "inputs": [],
            "name": "getPendingOrderPartner",
            "outputs": [
                {
                    "components": [
                        {
                            "internalType": "uint256",
                            "name": "orderInitiationTime",
                            "type": "uint256"
                        },
                        {
                            "internalType": "uint256[]",
                            "name": "productIDs",
                            "type": "uint256[]"
                        },
                        {
                            "internalType": "uint256[]",
                            "name": "supplyMap",
                            "type": "uint256[]"
                        },
                        {
                            "internalType": "bool",
                            "name": "partnerAssigned",
                            "type": "bool"
                        },
                        {
                            "internalType": "bool",
                            "name": "orderDeliveredByPartner",
                            "type": "bool"
                        },
                        {
                            "internalType": "bool",
                            "name": "orderReceivedByUser",
                            "type": "bool"
                        },
                        {
                            "internalType": "bool",
                            "name": "orderCancelled",
                            "type": "bool"
                        },
                        {
                            "internalType": "uint256",
                            "name": "otp",
                            "type": "uint256"
                        }
                    ],
                    "internalType": "struct FemPure.OrderData",
                    "name": "",
                    "type": "tuple"
                },
                {
                    "internalType": "uint256",
                    "name": "",
                    "type": "uint256"
                }
            ],
            "stateMutability": "view",
            "type": "function"
        },
        {
            "inputs": [],
            "name": "getPendingOrdersUser",
            "outputs": [
                {
                    "components": [
                        {
                            "internalType": "uint256",
                            "name": "orderInitiationTime",
                            "type": "uint256"
                        },
                        {
                            "internalType": "uint256[]",
                            "name": "productIDs",
                            "type": "uint256[]"
                        },
                        {
                            "internalType": "uint256[]",
                            "name": "supplyMap",
                            "type": "uint256[]"
                        },
                        {
                            "internalType": "bool",
                            "name": "partnerAssigned",
                            "type": "bool"
                        },
                        {
                            "internalType": "bool",
                            "name": "orderDeliveredByPartner",
                            "type": "bool"
                        },
                        {
                            "internalType": "bool",
                            "name": "orderReceivedByUser",
                            "type": "bool"
                        },
                        {
                            "internalType": "bool",
                            "name": "orderCancelled",
                            "type": "bool"
                        },
                        {
                            "internalType": "uint256",
                            "name": "otp",
                            "type": "uint256"
                        }
                    ],
                    "internalType": "struct FemPure.OrderData[]",
                    "name": "",
                    "type": "tuple[]"
                },
                {
                    "internalType": "uint256[]",
                    "name": "",
                    "type": "uint256[]"
                }
            ],
            "stateMutability": "view",
            "type": "function"
        },
        {
            "inputs": [],
            "name": "getUnapprovedPartners",
            "outputs": [
                {
                    "internalType": "address[]",
                    "name": "",
                    "type": "address[]"
                },
                {
                    "components": [
                        {
                            "internalType": "string[]",
                            "name": "pinCodes",
                            "type": "string[]"
                        },
                        {
                            "internalType": "uint256",
                            "name": "lastOrderID",
                            "type": "uint256"
                        },
                        {
                            "internalType": "bool",
                            "name": "approved",
                            "type": "bool"
                        },
                        {
                            "internalType": "bool",
                            "name": "InTransit",
                            "type": "bool"
                        }
                    ],
                    "internalType": "struct FemPure.Partner[]",
                    "name": "",
                    "type": "tuple[]"
                }
            ],
            "stateMutability": "view",
            "type": "function"
        },
        {
            "inputs": [],
            "name": "getUserPincode",
            "outputs": [
                {
                    "internalType": "string",
                    "name": "",
                    "type": "string"
                }
            ],
            "stateMutability": "view",
            "type": "function"
        },
        {
            "inputs": [],
            "name": "isRegisteredPartner",
            "outputs": [
                {
                    "internalType": "bool",
                    "name": "",
                    "type": "bool"
                }
            ],
            "stateMutability": "view",
            "type": "function"
        },
        {
            "inputs": [],
            "name": "isRegisteredUser",
            "outputs": [
                {
                    "internalType": "bool",
                    "name": "",
                    "type": "bool"
                }
            ],
            "stateMutability": "view",
            "type": "function"
        },
        {
            "inputs": [],
            "name": "logisticsCost",
            "outputs": [
                {
                    "internalType": "uint256",
                    "name": "",
                    "type": "uint256"
                }
            ],
            "stateMutability": "view",
            "type": "function"
        },
        {
            "inputs": [],
            "name": "markOrderDelivered",
            "outputs": [],
            "stateMutability": "nonpayable",
            "type": "function"
        },
        {
            "inputs": [],
            "name": "orderNum",
            "outputs": [
                {
                    "internalType": "uint256",
                    "name": "",
                    "type": "uint256"
                }
            ],
            "stateMutability": "view",
            "type": "function"
        },
        {
            "inputs": [],
            "name": "owner",
            "outputs": [
                {
                    "internalType": "address",
                    "name": "",
                    "type": "address"
                }
            ],
            "stateMutability": "view",
            "type": "function"
        },
        {
            "inputs": [
                {
                    "internalType": "string",
                    "name": "",
                    "type": "string"
                },
                {
                    "internalType": "uint256",
                    "name": "",
                    "type": "uint256"
                }
            ],
            "name": "pincodeToAvailableProductIDs",
            "outputs": [
                {
                    "internalType": "uint256",
                    "name": "",
                    "type": "uint256"
                }
            ],
            "stateMutability": "view",
            "type": "function"
        },
        {
            "inputs": [
                {
                    "internalType": "uint256[]",
                    "name": "_productIDs",
                    "type": "uint256[]"
                },
                {
                    "internalType": "uint256[]",
                    "name": "_supplyMap",
                    "type": "uint256[]"
                }
            ],
            "name": "placeOrder",
            "outputs": [],
            "stateMutability": "payable",
            "type": "function"
        },
        {
            "inputs": [
                {
                    "internalType": "uint256",
                    "name": "",
                    "type": "uint256"
                }
            ],
            "name": "productIDtoProduct",
            "outputs": [
                {
                    "internalType": "string",
                    "name": "name",
                    "type": "string"
                },
                {
                    "internalType": "string",
                    "name": "description",
                    "type": "string"
                },
                {
                    "internalType": "uint256",
                    "name": "priceInWei",
                    "type": "uint256"
                }
            ],
            "stateMutability": "view",
            "type": "function"
        },
        {
            "inputs": [],
            "name": "productMetadataBaseURI",
            "outputs": [
                {
                    "internalType": "string",
                    "name": "",
                    "type": "string"
                }
            ],
            "stateMutability": "view",
            "type": "function"
        },
        {
            "inputs": [
                {
                    "internalType": "uint256",
                    "name": "productID",
                    "type": "uint256"
                }
            ],
            "name": "productMetadataURI",
            "outputs": [
                {
                    "internalType": "string",
                    "name": "",
                    "type": "string"
                }
            ],
            "stateMutability": "view",
            "type": "function"
        },
        {
            "inputs": [],
            "name": "productNum",
            "outputs": [
                {
                    "internalType": "uint256",
                    "name": "",
                    "type": "uint256"
                }
            ],
            "stateMutability": "view",
            "type": "function"
        },
        {
            "inputs": [
                {
                    "internalType": "string[]",
                    "name": "pincodes",
                    "type": "string[]"
                }
            ],
            "name": "registerPartner",
            "outputs": [],
            "stateMutability": "nonpayable",
            "type": "function"
        },
        {
            "inputs": [
                {
                    "internalType": "string",
                    "name": "_pincode",
                    "type": "string"
                },
                {
                    "internalType": "string",
                    "name": "_residenceAddress",
                    "type": "string"
                }
            ],
            "name": "registerUser",
            "outputs": [],
            "stateMutability": "nonpayable",
            "type": "function"
        },
        {
            "inputs": [
                {
                    "internalType": "string",
                    "name": "_pincode",
                    "type": "string"
                },
                {
                    "internalType": "uint256[]",
                    "name": "productIDs",
                    "type": "uint256[]"
                }
            ],
            "name": "removeProductsFromLocation",
            "outputs": [],
            "stateMutability": "nonpayable",
            "type": "function"
        },
        {
            "inputs": [
                {
                    "internalType": "string",
                    "name": "URI",
                    "type": "string"
                }
            ],
            "name": "setProductMetadataBaseURI",
            "outputs": [],
            "stateMutability": "nonpayable",
            "type": "function"
        },
        {
            "inputs": [
                {
                    "internalType": "uint256",
                    "name": "_orderId",
                    "type": "uint256"
                },
                {
                    "internalType": "uint256",
                    "name": "_otp",
                    "type": "uint256"
                }
            ],
            "name": "verifyOrderDelivery",
            "outputs": [],
            "stateMutability": "nonpayable",
            "type": "function"
        },
        {
            "inputs": [],
            "name": "withdrawFunds",
            "outputs": [],
            "stateMutability": "nonpayable",
            "type": "function"
        },
        {
            "stateMutability": "payable",
            "type": "receive"
        }
    ],
    "bytecode": "0x60806040523480156200001157600080fd5b506040516200610238038062006102833981016040819052620000349162000120565b600080546001600160a01b03191633178155600180556002556003805460ff1916905560048290558051620000719060059060208401906200007a565b50505062000257565b828054620000889062000204565b90600052602060002090601f016020900481019282620000ac5760008555620000f7565b82601f10620000c757805160ff1916838001178555620000f7565b82800160010185558215620000f7579182015b82811115620000f7578251825591602001919060010190620000da565b506200010592915062000109565b5090565b5b808211156200010557600081556001016200010a565b6000806040838503121562000133578182fd5b8251602080850151919350906001600160401b038082111562000154578384fd5b818601915086601f83011262000168578384fd5b8151818111156200017d576200017d62000241565b604051601f8201601f19908116603f01168101908382118183101715620001a857620001a862000241565b816040528281528986848701011115620001c0578687fd5b8693505b82841015620001e35784840186015181850187015292850192620001c4565b82841115620001f457868684830101525b8096505050505050509250929050565b600181811c908216806200021957607f821691505b602082108114156200023b57634e487b7160e01b600052602260045260246000fd5b50919050565b634e487b7160e01b600052604160045260246000fd5b615e9b80620002676000396000f3fe6080604052600436106102285760003560e01c80639aff51c611610123578063b64f04eb116100ab578063ded9f3691161006f578063ded9f3691461064a578063df375ed81461065f578063e5b411f814610683578063e759868514610698578063ebcdcf93146106ad57600080fd5b8063b64f04eb14610596578063b6f64114146105c3578063b9036a3d146105e3578063d228ac9f14610612578063dd7baef41461062757600080fd5b8063a37d1cf0116100f2578063a37d1cf0146104fc578063a79725841461051e578063a9b047051461053e578063ad9f92f114610553578063afde91921461057657600080fd5b80639aff51c61461049d5780639d78c834146104b05780639ede6d31146104c6578063a34d5524146104dc57600080fd5b806351c858f8116101b157806388f03a041161017557806388f03a04146104035780638a67456a146104235780638bbf265d1461043d5780638da5cb5b1461045d57806393387a2e1461047d57600080fd5b806351c858f81461035e5780635d6d9efc1461038057806373aeaf56146103a05780637b439f31146103c3578063851a2f79146103e357600080fd5b806324600fc3116101f857806324600fc3146102b957806325b3b1d2146102ce5780632aa64602146102f15780632fe3c1c814610311578063366b19ae1461034957600080fd5b8062ed126e146102345780631626fe641461025d5780631d2e4afd146102825780631de23aca146102a457600080fd5b3661022f57005b600080fd5b34801561024057600080fd5b5061024a60045481565b6040519081526020015b60405180910390f35b34801561026957600080fd5b506102726106cd565b6040519015158152602001610254565b34801561028e57600080fd5b506102a261029d366004615547565b61071c565b005b3480156102b057600080fd5b506102a2610999565b3480156102c557600080fd5b506102a2610af9565b3480156102da57600080fd5b506102e3610b9f565b604051610254929190615af1565b3480156102fd57600080fd5b506102a261030c366004615513565b610db9565b34801561031d57600080fd5b5061033161032c3660046154e1565b61165a565b6040516001600160a01b039091168152602001610254565b34801561035557600080fd5b506102726118e6565b34801561036a57600080fd5b5061037361190b565b6040516102549190615ade565b34801561038c57600080fd5b506102a261039b3660046153d1565b6119e6565b3480156103ac57600080fd5b506103b5611c4c565b604051610254929190615a15565b3480156103cf57600080fd5b506103736103de366004615648565b611fee565b3480156103ef57600080fd5b506102a26103fe3660046154e1565b612096565b34801561040f57600080fd5b506102a261041e36600461559d565b6120d7565b34801561042f57600080fd5b506003546102729060ff1681565b34801561044957600080fd5b5061024a610458366004615606565b612236565b34801561046957600080fd5b50600054610331906001600160a01b031681565b34801561048957600080fd5b506102a2610498366004615678565b612276565b6102a26104ab366004615481565b612493565b3480156104bc57600080fd5b5061024a60015481565b3480156104d257600080fd5b5061024a60025481565b3480156104e857600080fd5b506103736104f7366004615648565b612988565b34801561050857600080fd5b50610511612a34565b6040516102549190615a02565b34801561052a57600080fd5b506102a2610539366004615392565b612b0d565b34801561054a57600080fd5b506103b5612bff565b34801561055f57600080fd5b50610568612f4b565b604051610254929190615c86565b34801561058257600080fd5b506102a2610591366004615648565b613141565b3480156105a257600080fd5b506105b66105b13660046154e1565b6134ec565b6040516102549190615a81565b3480156105cf57600080fd5b506102a26105de366004615513565b61355c565b3480156105ef57600080fd5b506106036105fe366004615648565b613ac4565b60405161025493929190615b16565b34801561061e57600080fd5b506103b5613bf6565b34801561063357600080fd5b5061063c613f64565b604051610254929190615934565b34801561065657600080fd5b50610373614366565b34801561066b57600080fd5b50336000908152600c60205260409020541515610272565b34801561068f57600080fd5b506103b5614373565b3480156106a457600080fd5b506103b56146dd565b3480156106b957600080fd5b5061024a6106c8366004615481565b614a27565b336000908152600c60205260408120546107025760405162461bcd60e51b81526004016106f990615c2b565b60405180910390fd5b50336000908152600c602052604090206002015460ff1690565b60035460ff161561073f5760405162461bcd60e51b81526004016106f990615bc8565b336000908152600b6020526040902080546107f1919061075e90615da4565b80601f016020809104026020016040519081016040528092919081815260200182805461078a90615da4565b80156107d75780601f106107ac576101008083540402835291602001916107d7565b820191906000526020600020905b8154815290600101906020018083116107ba57829003601f168201915b505050505060405180602001604052806000815250614b1e565b61083d5760405162461bcd60e51b815260206004820152601960248201527f416c72656164792061205265676973746572656420557365720000000000000060448201526064016106f9565b6108568260405180602001604052806000815250614b1e565b1561089a5760405162461bcd60e51b81526020600482015260146024820152731c1a5b98dbd919481b9bdd081c1c9bdd9a59195960621b60448201526064016106f9565b6108b38160405180602001604052806000815250614b1e565b156109005760405162461bcd60e51b815260206004820152601e60248201527f7265736964656e63652041646472657373206e6f742070726f7669646564000060448201526064016106f9565b6040805180820182528381526020808201849052336000908152600b8252929092208151805192939192610937928492019061506b565b506020828101518051610950926001850192019061506b565b5050600980546001810182556000919091527f6e1540171b6c0c960b71a7020d9f60077f6af931a8bbf590da0223dacf75c7af0180546001600160a01b03191633179055505050565b336000908152600c60205260409020546109c55760405162461bcd60e51b81526004016106f990615c2b565b336000908152600c602052604090206002015460ff166109f75760405162461bcd60e51b81526004016106f990615bf4565b60035460ff1615610a1a5760405162461bcd60e51b81526004016106f990615bc8565b336000908152600c6020526040902060020154610100900460ff16610a755760405162461bcd60e51b81526020600482015260116024820152704e6f7420416374697665204f726465727360781b60448201526064016106f9565b336000908152600c602090815260408083206001810180548552600d8452828520600301805461010061ff0019918216179091556002909201805490921690915554808452600e90925280832054905191926001600160a01b03909116917f4e9f18d518ae5b0d1ca77cc34c9f4859222e79acf833b0b55ca388908e15b1d89190a3565b6000546001600160a01b03163314610b235760405162461bcd60e51b81526004016106f990615c62565b6000805460405182916001600160a01b03169047908381818185875af1925050503d8060008114610b70576040519150601f19603f3d011682016040523d82523d6000602084013e610b75565b606091505b5091509150818190610b9a5760405162461bcd60e51b81526004016106f99190615ade565b505050565b336000908152600c60205260409020546060908190610bd05760405162461bcd60e51b81526004016106f990615c2b565b336000908152600c602052604090206002015460ff16610c025760405162461bcd60e51b81526004016106f990615bf4565b336000908152600c6020526040902060020154610100900460ff16610c5d5760405162461bcd60e51b81526020600482015260116024820152704e6f2050656e64696e67204f726465727360781b60448201526064016106f9565b336000908152600c602090815260408083206001908101548452600e8352818420546001600160a01b03168452600b90925290912090810180549091908290610ca590615da4565b80601f0160208091040260200160405190810160405280929190818152602001828054610cd190615da4565b8015610d1e5780601f10610cf357610100808354040283529160200191610d1e565b820191906000526020600020905b815481529060010190602001808311610d0157829003601f168201915b50505050509150808054610d3190615da4565b80601f0160208091040260200160405190810160405280929190818152602001828054610d5d90615da4565b8015610daa5780601f10610d7f57610100808354040283529160200191610daa565b820191906000526020600020905b815481529060010190602001808311610d8d57829003601f168201915b50505050509050915091509091565b6000546001600160a01b03163314610de35760405162461bcd60e51b81526004016106f990615c62565b60005b8151811015610e9957610e3a60086000848481518110610e1657634e487b7160e01b600052603260045260246000fd5b60200260200101518152602001908152602001600020600001805461075e90615da4565b15610e875760405162461bcd60e51b815260206004820152601e60248201527f536f6d652070726f64756374204944732061726520756e646566696e6564000060448201526064016106f9565b80610e9181615ddf565b915050610de6565b506000815111610ee45760405162461bcd60e51b8152602060048201526016602482015275139bc81c1c9bd91d58dd081251081c1c9bdd9a59195960521b60448201526064016106f9565b610efd8260405180602001604052806000815250614b1e565b15610f445760405162461bcd60e51b815260206004820152601760248201527670696e636f64652063616e6e6f7420626520656d70747960481b60448201526064016106f9565b6000600683604051610f569190615847565b9081526040805191829003602090810183208054808302850183019093528284529190830182828015610fa857602002820191906000526020600020905b815481526020019060010190808311610f94575b505050505090506000815111610ff65760405162461bcd60e51b81526020600482015260136024820152721c1a5b98dbd919481b9bdd081c1c995cd95b9d606a1b60448201526064016106f9565b6000805b835181101561109c5760005b83518110156110895783818151811061102f57634e487b7160e01b600052603260045260246000fd5b602002602001015185838151811061105757634e487b7160e01b600052603260045260246000fd5b60200260200101511415611077578261106f81615ddf565b935050611089565b8061108181615ddf565b915050611006565b508061109481615ddf565b915050610ffa565b506000816001600160401b038111156110c557634e487b7160e01b600052604160045260246000fd5b6040519080825280602002602001820160405280156110ee578160200160208202803683370190505b5090506000805b85518110156112215760005b855181101561120e5785818151811061112a57634e487b7160e01b600052603260045260246000fd5b602002602001015187838151811061115257634e487b7160e01b600052603260045260246000fd5b602002602001015114156111fc576000805b848110156111b6578286828151811061118d57634e487b7160e01b600052603260045260246000fd5b602002602001015114156111a457600191506111b6565b806111ae81615ddf565b915050611164565b50806111f657818585815181106111dd57634e487b7160e01b600052603260045260246000fd5b6020908102919091010152836111f281615ddf565b9450505b5061120e565b8061120681615ddf565b915050611101565b508061121981615ddf565b9150506110f5565b5060005b8181101561145a57600083828151811061124f57634e487b7160e01b600052603260045260246000fd5b602002602001015190505b600160068960405161126c9190615847565b908152604051908190036020019020546112869190615d46565b81101561133b5760068860405161129d9190615847565b9081526040519081900360200190206112b7826001615cfb565b815481106112d557634e487b7160e01b600052603260045260246000fd5b90600052602060002001546006896040516112f09190615847565b9081526020016040518091039020828154811061131d57634e487b7160e01b600052603260045260246000fd5b6000918252602090912001558061133381615ddf565b91505061125a565b506000611349826001615cfb565b90505b828110156113f55783828151811061137457634e487b7160e01b600052603260045260246000fd5b602002602001015184828151811061139c57634e487b7160e01b600052603260045260246000fd5b602002602001015111156113e3578381815181106113ca57634e487b7160e01b600052603260045260246000fd5b6020026020010180518091906113df90615d8d565b9052505b806113ed81615ddf565b91505061134c565b506006876040516114069190615847565b908152602001604051809103902080548061143157634e487b7160e01b600052603160045260246000fd5b60019003818190600052602060002001600090559055808061145290615ddf565b915050611225565b5060068660405161146b9190615847565b9081526040519081900360200190205461161b5760005b60075481101561161957611549600782815481106114b057634e487b7160e01b600052603260045260246000fd5b9060005260206000200180546114c590615da4565b80601f01602080910402602001604051908101604052809291908181526020018280546114f190615da4565b801561153e5780601f106115135761010080835404028352916020019161153e565b820191906000526020600020905b81548152906001019060200180831161152157829003601f168201915b505050505088614b1e565b15611607576007805461155e90600190615d46565b8154811061157c57634e487b7160e01b600052603260045260246000fd5b90600052602060002001600782815481106115a757634e487b7160e01b600052603260045260246000fd5b906000526020600020019080546115bd90615da4565b6115c89291906150ef565b5060078054806115e857634e487b7160e01b600052603160045260246000fd5b600190038181906000526020600020016000611604919061516a565b90555b8061161181615ddf565b915050611482565b505b7fc7283c47f6fdf8b862473b69e3616c3bd759afba6d3271066ddfe89aa87f7cc78660405161164a9190615ade565b60405180910390a1505050505050565b6000805b600a548110156118dd57600c6000600a838154811061168d57634e487b7160e01b600052603260045260246000fd5b60009182526020808320909101546001600160a01b0316835282019290925260400190206002015460ff166116c1576118cb565b600c6000600a83815481106116e657634e487b7160e01b600052603260045260246000fd5b60009182526020808320909101546001600160a01b0316835282019290925260400190206002015460ff610100909104166118cb5760005b600c6000600a848154811061174357634e487b7160e01b600052603260045260246000fd5b60009182526020808320909101546001600160a01b031683528201929092526040019020548110156118c957611874600c6000600a858154811061179757634e487b7160e01b600052603260045260246000fd5b60009182526020808320909101546001600160a01b0316835282019290925260400190208054839081106117db57634e487b7160e01b600052603260045260246000fd5b9060005260206000200180546117f090615da4565b80601f016020809104026020016040519081016040528092919081815260200182805461181c90615da4565b80156118695780601f1061183e57610100808354040283529160200191611869565b820191906000526020600020905b81548152906001019060200180831161184c57829003601f168201915b505050505085614b1e565b156118b757600a828154811061189a57634e487b7160e01b600052603260045260246000fd5b6000918252602090912001546001600160a01b0316949350505050565b806118c181615ddf565b91505061171e565b505b806118d581615ddf565b91505061165e565b50600092915050565b336000908152600b602052604081208054611905919061075e90615da4565b15905090565b336000908152600b60205260409020805460609161192c9161075e90615da4565b156119495760405162461bcd60e51b81526004016106f990615b99565b336000908152600b60205260409020805461196390615da4565b80601f016020809104026020016040519081016040528092919081815260200182805461198f90615da4565b80156119dc5780601f106119b1576101008083540402835291602001916119dc565b820191906000526020600020905b8154815290600101906020018083116119bf57829003601f168201915b5050505050905090565b60035460ff1615611a095760405162461bcd60e51b81526004016106f990615bc8565b336000908152600c602052604090205415611a665760405162461bcd60e51b815260206004820152601a60248201527f506172746e657220616c7265616479205265676973746572656400000000000060448201526064016106f9565b6000815111611aae5760405162461bcd60e51b81526020600482015260146024820152731c1a5b98dbd919481b9bdd081c1c9bdd9a59195960621b60448201526064016106f9565b60005b8151811015611b5957611afa828281518110611add57634e487b7160e01b600052603260045260246000fd5b602002602001015160405180602001604052806000815250614b1e565b15611b475760405162461bcd60e51b815260206004820152601760248201527f50696e636f64652063616e6e6f7420626520626c616e6b00000000000000000060448201526064016106f9565b80611b5181615ddf565b915050611ab1565b50604080516080810182528281526000602080830182905282840182905260608301829052338252600c81529290208151805192939192611b9d92849201906151a7565b5060208201516001808301919091556040808401516002909301805460609095015115156101000261ff00199415159490941661ffff199095169490941792909217909255600a8054928301815560009081527fc65a7bb8d6351c1cf70c95a316cc6a92839c986682d98bc35f958f4883f9d2a890920180546001600160a01b03191633179055517f8b3be9456b4ee0d7a6e4b0f9874315d7ed0f0fb3eaa6c11eb1282e89791bd7049190a150565b336000908152600b6020526040902080546060918291611c70919061075e90615da4565b15611c8d5760405162461bcd60e51b81526004016106f990615b99565b6000805b600154811015611d23576000818152600e60205260409020546001600160a01b031633148015611cd957506000818152600d602052604090206003015462010000900460ff16155b8015611cfe57506000818152600d60205260409020600301546301000000900460ff16155b15611d115781611d0d81615ddf565b9250505b80611d1b81615ddf565b915050611c91565b506000816001600160401b03811115611d4c57634e487b7160e01b600052604160045260246000fd5b604051908082528060200260200182016040528015611d8557816020015b611d72615200565b815260200190600190039081611d6a5790505b5090506000826001600160401b03811115611db057634e487b7160e01b600052604160045260246000fd5b604051908082528060200260200182016040528015611dd9578160200160208202803683370190505b5090506000805b600154811015611fe2576000818152600e60205260409020546001600160a01b031633148015611e2857506000818152600d602052604090206003015462010000900460ff16155b8015611e4d57506000818152600d60205260409020600301546301000000900460ff16155b15611fd0576000818152600d60209081526040918290208251610100810184528154815260018201805485518186028101860190965280865291949293858101939290830182828015611ebf57602002820191906000526020600020905b815481526020019060010190808311611eab575b5050505050815260200160028201805480602002602001604051908101604052809291908181526020018280548015611f1757602002820191906000526020600020905b815481526020019060010190808311611f03575b5050509183525050600382015460ff8082161515602084015261010082048116151560408401526201000082048116151560608401526301000000909104161515608082015260049091015460a0909101528451859084908110611f8b57634e487b7160e01b600052603260045260246000fd5b602002602001018190525080838381518110611fb757634e487b7160e01b600052603260045260246000fd5b602090810291909101015281611fcc81615ddf565b9250505b80611fda81615ddf565b915050611de0565b50919450925050509091565b6060600254821061203a5760405162461bcd60e51b81526020600482015260166024820152751c1c9bd91d58dd1251081a5cc81d5b9919599a5b995960521b60448201526064016106f9565b6005805461204790615da4565b151590506120645760405180602001604052806000815250612090565b600561206f83614b77565b604051602001612080929190615863565b6040516020818303038152906040525b92915050565b6000546001600160a01b031633146120c05760405162461bcd60e51b81526004016106f990615c62565b80516120d390600590602084019061506b565b5050565b6000546001600160a01b031633146121015760405162461bcd60e51b81526004016106f990615c62565b61211a8360405180602001604052806000815250614b1e565b156121675760405162461bcd60e51b815260206004820152601c60248201527f70726f64756374206e616d652063616e6e6f7420626520656d7074790000000060448201526064016106f9565b600081116121b75760405162461bcd60e51b815260206004820152601b60248201527f70726f6475637450726963652063616e6e6f74206265207a65726f000000000060448201526064016106f9565b6040805160608101825284815260208082018590528183018490526002546000908152600882529290922081518051929391926121f7928492019061506b565b506020828101518051612210926001850192019061506b565b5060409190910151600291820155805490600061222c83615ddf565b9190505550505050565b8151602081840181018051600682529282019185019190912091905280548290811061226157600080fd5b90600052602060002001600091509150505481565b336000908152600b602052604090208054612295919061075e90615da4565b156122b25760405162461bcd60e51b81526004016106f990615b99565b60035460ff16156122d55760405162461bcd60e51b81526004016106f990615bc8565b6000828152600e60205260409020546001600160a01b031633146123345760405162461bcd60e51b81526020600482015260166024820152752a3434b99034b9903737ba103cb7bab91037b93232b960511b60448201526064016106f9565b6000828152600d6020526040902060030154610100900460ff16801561237257506000828152600d602052604090206003015462010000900460ff16155b801561239757506000828152600d60205260409020600301546301000000900460ff16155b61241b5760405162461bcd60e51b815260206004820152604960248201527f4f72646572206973206e6f742064656c697665726564206f722068617320416c60448201527f7265616479206265656e207265636569766564206f7220686173206265656e2060648201526818d85b98d95b1b195960ba1b608482015260a4016106f9565b6000828152600d602052604090206004015481146124705760405162461bcd60e51b815260206004820152601260248201527109ea8a040c8decae640dcdee840dac2e8c6d60731b60448201526064016106f9565b506000908152600d60205260409020600301805462ff0000191662010000179055565b336000908152600b6020526040902080546124b2919061075e90615da4565b156124cf5760405162461bcd60e51b81526004016106f990615b99565b60035460ff16156124f25760405162461bcd60e51b81526004016106f990615bc8565b80518251146125135760405162461bcd60e51b81526004016106f990615b4c565b600061251f8383614c98565b116125655760405162461bcd60e51b815260206004820152601660248201527550726f6475637420496e70757420697320656d70747960501b60448201526064016106f9565b336000908152600b60205260408120805461257f90615da4565b80601f01602080910402602001604051908101604052809291908181526020018280546125ab90615da4565b80156125f85780601f106125cd576101008083540402835291602001916125f8565b820191906000526020600020905b8154815290600101906020018083116125db57829003601f168201915b505050505090506126098382614d0f565b6126555760405162461bcd60e51b815260206004820152601f60248201527f536f6d652050726f647563747320617265206e6f7420417661696c61626c650060448201526064016106f9565b60405163ebcdcf9360e01b8152600090309063ebcdcf939061267d9087908790600401615a94565b60206040518083038186803b15801561269557600080fd5b505afa1580156126a9573d6000803e3d6000fd5b505050506040513d601f19601f820116820180604052508101906126cd9190615660565b9050600454816126dd9190615cfb565b34116127205760405162461bcd60e51b81526020600482015260126024820152714e6f7420656e6f7567682062616c616e636560701b60448201526064016106f9565b6001546040805161010081018252428152602081018790529081018590526000606082018190526080820181905260a0820181905260c082015260e0810161271061276b8888614e06565b6127759190615dfa565b90526000828152600d602090815260409091208251815582820151805191926127a69260018501929091019061524d565b50604082015180516127c291600284019160209091019061524d565b506060820151600382018054608085015160a086015160c0870151151563010000000263ff0000001991151562010000029190911663ffff0000199215156101000261ff00199615159690961661ffff199094169390931794909417161791909117905560e0909101516004909101556000818152600e60205260409081902080546001600160a01b03191633179055517f5a5410ec1b670639c77153ea6da84de6344d55b293a9687af6585a390653b3b690612880908590615ade565b60405180910390a16040516305fc783960e31b81526000903090632fe3c1c8906128ae908790600401615ade565b60206040518083038186803b1580156128c657600080fd5b505afa1580156128da573d6000803e3d6000fd5b505050506040513d601f19601f820116820180604052508101906128fe91906153b5565b90506001600160a01b0381166129605760405162461bcd60e51b815260206004820152602160248201527f4e6f20506172746e657220617661696c61626c6520666f722044656c697665726044820152607960f81b60648201526084016106f9565b61296b828583614e5f565b6001805490600061297b83615ddf565b9190505550505050505050565b6007818154811061299857600080fd5b9060005260206000200160009150905080546129b390615da4565b80601f01602080910402602001604051908101604052809291908181526020018280546129df90615da4565b8015612a2c5780601f10612a0157610100808354040283529160200191612a2c565b820191906000526020600020905b815481529060010190602001808311612a0f57829003601f168201915b505050505081565b60606007805480602002602001604051908101604052809291908181526020016000905b82821015612b04578382906000526020600020018054612a7790615da4565b80601f0160208091040260200160405190810160405280929190818152602001828054612aa390615da4565b8015612af05780601f10612ac557610100808354040283529160200191612af0565b820191906000526020600020905b815481529060010190602001808311612ad357829003601f168201915b505050505081526020019060010190612a58565b50505050905090565b6000546001600160a01b03163314612b375760405162461bcd60e51b81526004016106f990615c62565b6001600160a01b0381166000908152600c6020526040902054612b6c5760405162461bcd60e51b81526004016106f990615c2b565b6001600160a01b0381166000908152600c602052604090206002015460ff1615612bd85760405162461bcd60e51b815260206004820152601860248201527f416c726561647920417070726f76656420506172746e6572000000000000000060448201526064016106f9565b6001600160a01b03166000908152600c60205260409020600201805460ff19166001179055565b336000908152600b6020526040902080546060918291612c23919061075e90615da4565b15612c405760405162461bcd60e51b81526004016106f990615b99565b6000805b600154811015612cb1576000818152600e60205260409020546001600160a01b031633148015612c8c57506000818152600d60205260409020600301546301000000900460ff165b15612c9f5781612c9b81615ddf565b9250505b80612ca981615ddf565b915050612c44565b506000816001600160401b03811115612cda57634e487b7160e01b600052604160045260246000fd5b604051908082528060200260200182016040528015612d1357816020015b612d00615200565b815260200190600190039081612cf85790505b5090506000826001600160401b03811115612d3e57634e487b7160e01b600052604160045260246000fd5b604051908082528060200260200182016040528015612d67578160200160208202803683370190505b5090506000805b600154811015611fe2576000818152600e60205260409020546001600160a01b031633148015612db657506000818152600d60205260409020600301546301000000900460ff165b15612f39576000818152600d60209081526040918290208251610100810184528154815260018201805485518186028101860190965280865291949293858101939290830182828015612e2857602002820191906000526020600020905b815481526020019060010190808311612e14575b5050505050815260200160028201805480602002602001604051908101604052809291908181526020018280548015612e8057602002820191906000526020600020905b815481526020019060010190808311612e6c575b5050509183525050600382015460ff8082161515602084015261010082048116151560408401526201000082048116151560608401526301000000909104161515608082015260049091015460a0909101528451859084908110612ef457634e487b7160e01b600052603260045260246000fd5b602002602001018190525080838381518110612f2057634e487b7160e01b600052603260045260246000fd5b602090810291909101015281612f3581615ddf565b9250505b80612f4381615ddf565b915050612d6e565b612f53615200565b336000908152600c6020526040812054612f7f5760405162461bcd60e51b81526004016106f990615c2b565b336000908152600c602052604090206002015460ff16612fb15760405162461bcd60e51b81526004016106f990615bf4565b336000908152600c6020526040902060020154610100900460ff1661300c5760405162461bcd60e51b81526020600482015260116024820152704e6f2050656e64696e67204f726465727360781b60448201526064016106f9565b336000818152600c60208181526040808420600190810154808652600d84528286209690955292825280516101008101825285548152928501805482518185028101850190935280835286938581019392919083018282801561308e57602002820191906000526020600020905b81548152602001906001019080831161307a575b50505050508152602001600282018054806020026020016040519081016040528092919081815260200182805480156130e657602002820191906000526020600020905b8154815260200190600101908083116130d2575b5050509183525050600382015460ff8082161515602084015261010082048116151560408401526201000082048116151560608401526301000000909104161515608082015260049091015460a09091015293509150509091565b336000908152600b602052604090208054613160919061075e90615da4565b1561317d5760405162461bcd60e51b81526004016106f990615b99565b60035460ff16156131a05760405162461bcd60e51b81526004016106f990615bc8565b6000818152600e60205260409020546001600160a01b031633146131ff5760405162461bcd60e51b81526020600482015260166024820152752a3434b99034b9903737ba103cb7bab91037b93232b960511b60448201526064016106f9565b6000818152600d6020526040902060030154610100900460ff1615801561323f57506000818152600d60205260409020600301546301000000900460ff16155b6132a15760405162461bcd60e51b815260206004820152602d60248201527f4f7264657220686173206265656e2064656c697665726564206f7220616c726560448201526c18591e4818d85b98d95b1b1959609a1b60648201526084016106f9565b6000818152600d6020818152604080842060038101805463ff00000019166301000000179055600f8352818520546001600160a01b03168552600c83528185206002908101805461ff0019169055868652939092525163ebcdcf9360e01b8152339392309263ebcdcf939261331f9260018301920190600401615ab9565b60206040518083038186803b15801561333757600080fd5b505afa15801561334b573d6000803e3d6000fd5b505050506040513d601f19601f8201168201806040525081019061336f9190615660565b6000848152600d602052604090206003015490915060ff161561342857600454600061339b8284615d46565b1115613422576000806001600160a01b0385166133b88486615d46565b604051600081818185875af1925050503d80600081146133f4576040519150601f19603f3d011682016040523d82523d6000602084013e6133f9565b606091505b509150915081819061341e5760405162461bcd60e51b81526004016106f99190615ade565b5050505b506134a4565b600080836001600160a01b03168360405160006040518083038185875af1925050503d8060008114613476576040519150601f19603f3d011682016040523d82523d6000602084013e61347b565b606091505b50915091508181906134a05760405162461bcd60e51b81526004016106f99190615ade565b5050505b6000838152600f602052604080822054905185926001600160a01b03909216917fdd003742fb214507783ce004fe55f5ac14f89c6de4a7cd7487e47eb091c6226591a3505050565b60606006826040516134fe9190615847565b908152604080519182900360209081018320805480830285018301909352828452919083018282801561355057602002820191906000526020600020905b81548152602001906001019080831161353c575b50505050509050919050565b6000546001600160a01b031633146135865760405162461bcd60e51b81526004016106f990615c62565b60005b8151811015613618576135b960086000848481518110610e1657634e487b7160e01b600052603260045260246000fd5b156136065760405162461bcd60e51b815260206004820152601e60248201527f536f6d652070726f64756374204944732061726520756e646566696e6564000060448201526064016106f9565b8061361081615ddf565b915050613589565b5060008151116136635760405162461bcd60e51b8152602060048201526016602482015275139bc81c1c9bd91d58dd081251081c1c9bdd9a59195960521b60448201526064016106f9565b61367c8260405180602001604052806000815250614b1e565b156136c35760405162461bcd60e51b815260206004820152601760248201527670696e636f64652063616e6e6f7420626520656d70747960481b60448201526064016106f9565b60006006836040516136d59190615847565b908152604080519182900360209081018320805480830285018301909352828452919083018282801561372757602002820191906000526020600020905b815481526020019060010190808311613713575b505050505090506000815111156139035760005b82518110156138fd576000805b83518110156137c25783818151811061377157634e487b7160e01b600052603260045260246000fd5b602002602001015185848151811061379957634e487b7160e01b600052603260045260246000fd5b602002602001015114156137b057600191506137c2565b806137ba81615ddf565b915050613748565b50806138ea576000805b6006876040516137dc9190615847565b908152604051908190036020019020548110156138845785848151811061381357634e487b7160e01b600052603260045260246000fd5b602002602001015160068860405161382b9190615847565b9081526020016040518091039020828154811061385857634e487b7160e01b600052603260045260246000fd5b906000526020600020015414156138725760019150613884565b8061387c81615ddf565b9150506137cc565b50806138e85760068660405161389a9190615847565b90815260200160405180910390208584815181106138c857634e487b7160e01b600052603260045260246000fd5b602090810291909101810151825460018101845560009384529190922001555b505b50806138f581615ddf565b91505061373b565b50613a88565b60005b8251811015613a42576000805b6006866040516139239190615847565b908152604051908190036020019020548110156139cb5784838151811061395a57634e487b7160e01b600052603260045260246000fd5b60200260200101516006876040516139729190615847565b9081526020016040518091039020828154811061399f57634e487b7160e01b600052603260045260246000fd5b906000526020600020015414156139b957600191506139cb565b806139c381615ddf565b915050613913565b5080613a2f576006856040516139e19190615847565b9081526020016040518091039020848381518110613a0f57634e487b7160e01b600052603260045260246000fd5b602090810291909101810151825460018101845560009384529190922001555b5080613a3a81615ddf565b915050613906565b50600780546001810182556000919091528351613a86917fa66cc928b5edb82af9bd49922954155ab7b0942694bea4ce44661d9a8736c6880190602086019061506b565b505b7f9e5d27296fcb3db217194efd81603bed3792a5cde30e3bb561d20c145e7af1fc83604051613ab79190615ade565b60405180910390a1505050565b600860205260009081526040902080548190613adf90615da4565b80601f0160208091040260200160405190810160405280929190818152602001828054613b0b90615da4565b8015613b585780601f10613b2d57610100808354040283529160200191613b58565b820191906000526020600020905b815481529060010190602001808311613b3b57829003601f168201915b505050505090806001018054613b6d90615da4565b80601f0160208091040260200160405190810160405280929190818152602001828054613b9990615da4565b8015613be65780601f10613bbb57610100808354040283529160200191613be6565b820191906000526020600020905b815481529060010190602001808311613bc957829003601f168201915b5050505050908060020154905083565b336000908152600c60205260409020546060908190613c275760405162461bcd60e51b81526004016106f990615c2b565b336000908152600c602052604090206002015460ff16613c595760405162461bcd60e51b81526004016106f990615bf4565b6000805b600154811015613cca576000818152600f60205260409020546001600160a01b031633148015613ca557506000818152600d60205260409020600301546301000000900460ff165b15613cb85781613cb481615ddf565b9250505b80613cc281615ddf565b915050613c5d565b506000816001600160401b03811115613cf357634e487b7160e01b600052604160045260246000fd5b604051908082528060200260200182016040528015613d2c57816020015b613d19615200565b815260200190600190039081613d115790505b5090506000826001600160401b03811115613d5757634e487b7160e01b600052604160045260246000fd5b604051908082528060200260200182016040528015613d80578160200160208202803683370190505b5090506000805b600154811015611fe2576000818152600f60205260409020546001600160a01b031633148015613dcf57506000818152600d60205260409020600301546301000000900460ff165b15613f52576000818152600d60209081526040918290208251610100810184528154815260018201805485518186028101860190965280865291949293858101939290830182828015613e4157602002820191906000526020600020905b815481526020019060010190808311613e2d575b5050505050815260200160028201805480602002602001604051908101604052809291908181526020018280548015613e9957602002820191906000526020600020905b815481526020019060010190808311613e85575b5050509183525050600382015460ff8082161515602084015261010082048116151560408401526201000082048116151560608401526301000000909104161515608082015260049091015460a0909101528451859084908110613f0d57634e487b7160e01b600052603260045260246000fd5b602002602001018190525080838381518110613f3957634e487b7160e01b600052603260045260246000fd5b602090810291909101015281613f4e81615ddf565b9250505b80613f5c81615ddf565b915050613d87565b60005460609081906001600160a01b03163314613f935760405162461bcd60e51b81526004016106f990615c62565b6000805b600a5481101561401557600c6000600a8381548110613fc657634e487b7160e01b600052603260045260246000fd5b60009182526020808320909101546001600160a01b0316835282019290925260400190206002015460ff166140035781613fff81615ddf565b9250505b8061400d81615ddf565b915050613f97565b506000816001600160401b0381111561403e57634e487b7160e01b600052604160045260246000fd5b604051908082528060200260200182016040528015614067578160200160208202803683370190505b5090506000826001600160401b0381111561409257634e487b7160e01b600052604160045260246000fd5b6040519080825280602002602001820160405280156140e557816020015b604080516080810182526060808252600060208084018290529383018190529082015282526000199092019101816140b05790505b5090506000805b600a54811015611fe257600c6000600a838154811061411b57634e487b7160e01b600052603260045260246000fd5b60009182526020808320909101546001600160a01b0316835282019290925260400190206002015460ff1661435457600a818154811061416b57634e487b7160e01b600052603260045260246000fd5b9060005260206000200160009054906101000a90046001600160a01b03168483815181106141a957634e487b7160e01b600052603260045260246000fd5b60200260200101906001600160a01b031690816001600160a01b031681525050600c6000600a83815481106141ee57634e487b7160e01b600052603260045260246000fd5b60009182526020808320909101546001600160a01b0316835282810193909352604091820181208251815460a09581028201860190945260808101848152909491938593919285929085015b828210156142e657838290600052602060002001805461425990615da4565b80601f016020809104026020016040519081016040528092919081815260200182805461428590615da4565b80156142d25780601f106142a7576101008083540402835291602001916142d2565b820191906000526020600020905b8154815290600101906020018083116142b557829003601f168201915b50505050508152602001906001019061423a565b505050908252506001820154602082015260029091015460ff80821615156040840152610100909104161515606090910152835184908490811061433a57634e487b7160e01b600052603260045260246000fd5b6020026020010181905250818061435090615ddf565b9250505b8061435e81615ddf565b9150506140ec565b600580546129b390615da4565b336000908152600c602052604090205460609081906143a45760405162461bcd60e51b81526004016106f990615c2b565b336000908152600c602052604090206002015460ff166143d65760405162461bcd60e51b81526004016106f990615bf4565b6000805b600154811015614445576000818152600f60205260409020546001600160a01b03163314801561442057506000818152600d6020526040902060030154610100900460ff165b15614433578161442f81615ddf565b9250505b8061443d81615ddf565b9150506143da565b506000816001600160401b0381111561446e57634e487b7160e01b600052604160045260246000fd5b6040519080825280602002602001820160405280156144a757816020015b614494615200565b81526020019060019003908161448c5790505b5090506000826001600160401b038111156144d257634e487b7160e01b600052604160045260246000fd5b6040519080825280602002602001820160405280156144fb578160200160208202803683370190505b5090506000805b600154811015611fe2576000818152600f60205260409020546001600160a01b03163314801561454857506000818152600d6020526040902060030154610100900460ff165b156146cb576000818152600d602090815260409182902082516101008101845281548152600182018054855181860281018601909652808652919492938581019392908301828280156145ba57602002820191906000526020600020905b8154815260200190600101908083116145a6575b505050505081526020016002820180548060200260200160405190810160405280929190818152602001828054801561461257602002820191906000526020600020905b8154815260200190600101908083116145fe575b5050509183525050600382015460ff8082161515602084015261010082048116151560408401526201000082048116151560608401526301000000909104161515608082015260049091015460a090910152845185908490811061468657634e487b7160e01b600052603260045260246000fd5b6020026020010181905250808383815181106146b257634e487b7160e01b600052603260045260246000fd5b6020908102919091010152816146c781615ddf565b9250505b806146d581615ddf565b915050614502565b336000908152600b6020526040902080546060918291614701919061075e90615da4565b1561471e5760405162461bcd60e51b81526004016106f990615b99565b6000805b60015481101561478e576000818152600e60205260409020546001600160a01b03163314801561476957506000818152600d602052604090206003015462010000900460ff165b1561477c578161477881615ddf565b9250505b8061478681615ddf565b915050614722565b506000816001600160401b038111156147b757634e487b7160e01b600052604160045260246000fd5b6040519080825280602002602001820160405280156147f057816020015b6147dd615200565b8152602001906001900390816147d55790505b5090506000826001600160401b0381111561481b57634e487b7160e01b600052604160045260246000fd5b604051908082528060200260200182016040528015614844578160200160208202803683370190505b5090506000805b600154811015611fe2576000818152600e60205260409020546001600160a01b03163314801561489257506000818152600d602052604090206003015462010000900460ff165b15614a15576000818152600d6020908152604091829020825161010081018452815481526001820180548551818602810186019096528086529194929385810193929083018282801561490457602002820191906000526020600020905b8154815260200190600101908083116148f0575b505050505081526020016002820180548060200260200160405190810160405280929190818152602001828054801561495c57602002820191906000526020600020905b815481526020019060010190808311614948575b5050509183525050600382015460ff8082161515602084015261010082048116151560408401526201000082048116151560608401526301000000909104161515608082015260049091015460a09091015284518590849081106149d057634e487b7160e01b600052603260045260246000fd5b6020026020010181905250808383815181106149fc57634e487b7160e01b600052603260045260246000fd5b602090810291909101015281614a1181615ddf565b9250505b80614a1f81615ddf565b91505061484b565b60008151835114614a4a5760405162461bcd60e51b81526004016106f990615b4c565b6000805b8451811015614b16576000848281518110614a7957634e487b7160e01b600052603260045260246000fd5b60200260200101511115614b0457838181518110614aa757634e487b7160e01b600052603260045260246000fd5b602002602001015160086000878481518110614ad357634e487b7160e01b600052603260045260246000fd5b6020026020010151815260200190815260200160002060020154614af79190615d27565b614b019083615cfb565b91505b80614b0e81615ddf565b915050614a4e565b509392505050565b600081604051602001614b319190615847565b6040516020818303038152906040528051906020012083604051602001614b589190615847565b6040516020818303038152906040528051906020012014905092915050565b606081614b9b5750506040805180820190915260018152600360fc1b602082015290565b8160005b8115614bc55780614baf81615ddf565b9150614bbe9050600a83615d13565b9150614b9f565b6000816001600160401b03811115614bed57634e487b7160e01b600052604160045260246000fd5b6040519080825280601f01601f191660200182016040528015614c17576020820181803683370190505b5090505b8415614c9057614c2c600183615d46565b9150614c39600a86615dfa565b614c44906030615cfb565b60f81b818381518110614c6757634e487b7160e01b600052603260045260246000fd5b60200101906001600160f81b031916908160001a905350614c89600a86615d13565b9450614c1b565b949350505050565b60008151835114614cbb5760405162461bcd60e51b81526004016106f990615b4c565b6000805b8451811015614b1657838181518110614ce857634e487b7160e01b600052603260045260246000fd5b602002602001015182614cfb9190615cfb565b915080614d0781615ddf565b915050614cbf565b6000805b8351811015614dfc576000805b600685604051614d309190615847565b90815260405190819003602001902054811015614dd857600685604051614d579190615847565b90815260200160405180910390208181548110614d8457634e487b7160e01b600052603260045260246000fd5b9060005260206000200154868481518110614daf57634e487b7160e01b600052603260045260246000fd5b60200260200101511415614dc65760019150614dd8565b80614dd081615ddf565b915050614d20565b5080614de957600092505050612090565b5080614df481615ddf565b915050614d13565b5060019392505050565b60008151835114614e295760405162461bcd60e51b81526004016106f990615b4c565b44428484604051602001614e409493929190615909565b60408051601f1981840301815291905280516020909101209392505050565b60035460ff1615614e825760405162461bcd60e51b81526004016106f990615bc8565b6001600160a01b0381166000908152600c602052604090206002015460ff16614eed5760405162461bcd60e51b815260206004820152601760248201527f506172746e6572206973206e6f7420417070726f76656400000000000000000060448201526064016106f9565b6000805b6001600160a01b0383166000908152600c6020526040902054811015614f6e576001600160a01b0383166000908152600c602052604090208054614f4e9190839081106117db57634e487b7160e01b600052603260045260246000fd5b15614f5c5760019150614f6e565b80614f6681615ddf565b915050614ef1565b5080614fcb5760405162461bcd60e51b815260206004820152602660248201527f506172746e65722063616e6e6f742064656c6976657220746f20746869732070604482015265696e636f646560d01b60648201526084016106f9565b6001600160a01b038083166000818152600c6020908152604080832060018082018b90556002909101805461ff001916610100179055898452600f835281842080546001600160a01b03191686179055600d8352818420600301805460ff19169091179055600e909152808220549051889491909116917fa97de1a0a44d5bb9019f6a3a503f735a46bb7fb9f1c8332a591a1861858cdc8891a450505050565b82805461507790615da4565b90600052602060002090601f01602090048101928261509957600085556150df565b82601f106150b257805160ff19168380011785556150df565b828001600101855582156150df579182015b828111156150df5782518255916020019190600101906150c4565b506150eb929150615287565b5090565b8280546150fb90615da4565b90600052602060002090601f01602090048101928261511d57600085556150df565b82601f1061512e57805485556150df565b828001600101855582156150df57600052602060002091601f016020900482015b828111156150df57825482559160010191906001019061514f565b50805461517690615da4565b6000825580601f10615186575050565b601f0160209004906000526020600020908101906151a49190615287565b50565b8280548282559060005260206000209081019282156151f4579160200282015b828111156151f457825180516151e491849160209091019061506b565b50916020019190600101906151c7565b506150eb92915061529c565b604051806101000160405280600081526020016060815260200160608152602001600015158152602001600015158152602001600015158152602001600015158152602001600081525090565b8280548282559060005260206000209081019282156150df57916020028201828111156150df5782518255916020019190600101906150c4565b5b808211156150eb5760008155600101615288565b808211156150eb5760006152b0828261516a565b5060010161529c565b600082601f8301126152c9578081fd5b813560206152de6152d983615cd8565b615ca8565b80838252828201915082860187848660051b89010111156152fd578586fd5b855b8581101561531b578135845292840192908401906001016152ff565b5090979650505050505050565b600082601f830112615338578081fd5b81356001600160401b0381111561535157615351615e3a565b615364601f8201601f1916602001615ca8565b818152846020838601011115615378578283fd5b816020850160208301379081016020019190915292915050565b6000602082840312156153a3578081fd5b81356153ae81615e50565b9392505050565b6000602082840312156153c6578081fd5b81516153ae81615e50565b600060208083850312156153e3578182fd5b82356001600160401b03808211156153f9578384fd5b818501915085601f83011261540c578384fd5b813561541a6152d982615cd8565b80828252858201915085850189878560051b8801011115615439578788fd5b875b848110156154725781358681111561545157898afd5b61545f8c8a838b0101615328565b855250928701929087019060010161543b565b50909998505050505050505050565b60008060408385031215615493578081fd5b82356001600160401b03808211156154a9578283fd5b6154b5868387016152b9565b935060208501359150808211156154ca578283fd5b506154d7858286016152b9565b9150509250929050565b6000602082840312156154f2578081fd5b81356001600160401b03811115615507578182fd5b614c9084828501615328565b60008060408385031215615525578182fd5b82356001600160401b038082111561553b578384fd5b6154b586838701615328565b60008060408385031215615559578182fd5b82356001600160401b038082111561556f578384fd5b61557b86838701615328565b93506020850135915080821115615590578283fd5b506154d785828601615328565b6000806000606084860312156155b1578081fd5b83356001600160401b03808211156155c7578283fd5b6155d387838801615328565b945060208601359150808211156155e8578283fd5b506155f586828701615328565b925050604084013590509250925092565b60008060408385031215615618578182fd5b82356001600160401b0381111561562d578283fd5b61563985828601615328565b95602094909401359450505050565b600060208284031215615659578081fd5b5035919050565b600060208284031215615671578081fd5b5051919050565b6000806040838503121561568a578182fd5b50508035926020909101359150565b6000815180845260208085019450848260051b8601828601855b8581101561531b5783830389526156cb83835161576e565b988501989250908401906001016156b3565b6000815180845260208085019450808401835b8381101561570c578151875295820195908201906001016156f0565b509495945050505050565b8051600090602080840183831561570c578151875295820195908201906001016156f0565b6000815480845260208085019450838352808320835b8381101561570c57815487529582019560019182019101615752565b60008151808452615786816020860160208601615d5d565b601f01601f19169290920160200192915050565b600081516157ac818560208601615d5d565b9290920192915050565b60006101008251845260208301518160208601526157d6828601826156dd565b915050604083015184820360408601526157f082826156dd565b91505060608301511515606085015260808301511515608085015260a083015161581e60a086018215159052565b5060c083015161583260c086018215159052565b5060e083015160e08501528091505092915050565b60008251615859818460208701615d5d565b9190910192915050565b600080845482600182811c91508083168061587f57607f831692505b602080841082141561589f57634e487b7160e01b87526022600452602487fd5b8180156158b357600181146158c4576158f0565b60ff198616895284890196506158f0565b60008b815260209020885b868110156158e85781548b8201529085019083016158cf565b505084890196505b505050505050615900818561579a565b95945050505050565b848152836020820152600061592a6159246040840186615717565b84615717565b9695505050505050565b6040808252835182820181905260009190606090818501906020808901865b838110156159785781516001600160a01b031685529382019390820190600101615953565b50508683038188015287518084528184019250600581901b84018201898301885b838110156159f157601f198784030186528151608081518186526159bf82870182615699565b83890151878a01528c84015115158d880152928b01511515958b01959095525095850195925090840190600101615999565b50909b9a5050505050505050505050565b6020815260006153ae6020830184615699565b6000604082016040835280855180835260608501915060608160051b86010192506020808801855b83811015615a6b57605f19888703018552615a598683516157b6565b95509382019390820190600101615a3d565b50508584038187015250505061590081856156dd565b6020815260006153ae60208301846156dd565b604081526000615aa760408301856156dd565b828103602084015261590081856156dd565b604081526000615acc604083018561573c565b8281036020840152615900818561573c565b6020815260006153ae602083018461576e565b604081526000615b04604083018561576e565b8281036020840152615900818561576e565b606081526000615b29606083018661576e565b8281036020840152615b3b818661576e565b915050826040830152949350505050565b6020808252602d908201527f4e756d626572206f662070726f64756374494420616e6420737570706c79207360408201526c686f756c642062652073616d6560981b606082015260800190565b6020808252601590820152742737ba1030902932b3b4b9ba32b932b2102ab9b2b960591b604082015260600190565b60208082526012908201527110dbdb9d1c9858dd081a5cc814185d5cd95960721b604082015260600190565b60208082526017908201527f4e6f7420616e20417070726f76656420506172746e6572000000000000000000604082015260600190565b60208082526018908201527f4e6f742061205265676973746572656420506172746e65720000000000000000604082015260600190565b6020808252600a908201526927b7363c9027bbb732b960b11b604082015260600190565b604081526000615c9960408301856157b6565b90508260208301529392505050565b604051601f8201601f191681016001600160401b0381118282101715615cd057615cd0615e3a565b604052919050565b60006001600160401b03821115615cf157615cf1615e3a565b5060051b60200190565b60008219821115615d0e57615d0e615e0e565b500190565b600082615d2257615d22615e24565b500490565b6000816000190483118215151615615d4157615d41615e0e565b500290565b600082821015615d5857615d58615e0e565b500390565b60005b83811015615d78578181015183820152602001615d60565b83811115615d87576000848401525b50505050565b600081615d9c57615d9c615e0e565b506000190190565b600181811c90821680615db857607f821691505b60208210811415615dd957634e487b7160e01b600052602260045260246000fd5b50919050565b6000600019821415615df357615df3615e0e565b5060010190565b600082615e0957615e09615e24565b500690565b634e487b7160e01b600052601160045260246000fd5b634e487b7160e01b600052601260045260246000fd5b634e487b7160e01b600052604160045260246000fd5b6001600160a01b03811681146151a457600080fdfea264697066735822122053ac0bc140cacf2b0b723e5153c96a9cfda962e6f0096647fc4f9cd5355dfd9e64736f6c63430008040033",
    "linkReferences": {},
    "deployedLinkReferences": {}
}